{
  "contractName": "Calculator",
  "abi": [
    {
      "inputs": [
        {
          "name": "number",
          "type": "uint256"
        }
      ],
      "payable": false,
      "stateMutability": "nonpayable",
      "type": "constructor"
    },
    {
      "constant": true,
      "inputs": [],
      "name": "getResult",
      "outputs": [
        {
          "name": "",
          "type": "uint256"
        }
      ],
      "payable": false,
      "stateMutability": "view",
      "type": "function"
    },
    {
      "constant": false,
      "inputs": [
        {
          "name": "num",
          "type": "uint256"
        }
      ],
      "name": "addToNumber",
      "outputs": [
        {
          "name": "",
          "type": "uint256"
        }
      ],
      "payable": false,
      "stateMutability": "nonpayable",
      "type": "function"
    },
    {
      "constant": false,
      "inputs": [
        {
          "name": "num",
          "type": "uint256"
        }
      ],
      "name": "substractFromNumber",
      "outputs": [
        {
          "name": "",
          "type": "uint256"
        }
      ],
      "payable": false,
      "stateMutability": "nonpayable",
      "type": "function"
    }
  ],
  "bytecode": "0x6060604052341561000f57600080fd5b6040516020806101a083398101604052808051906020019091905050806000819055505061015e806100426000396000f300606060405260043610610057576000357c0100000000000000000000000000000000000000000000000000000000900463ffffffff16806306ccd2301461005c578063de29278914610093578063ef455b3c146100bc575b600080fd5b341561006757600080fd5b61007d60048080359060200190919050506100f3565b6040518082815260200191505060405180910390f35b341561009e57600080fd5b6100a661010e565b6040518082815260200191505060405180910390f35b34156100c757600080fd5b6100dd6004808035906020019091905050610117565b6040518082815260200191505060405180910390f35b60008160008082825401925050819055506000549050919050565b60008054905090565b600081600080828254039250508190555060005490509190505600a165627a7a723058204a7a9f2a5a3bbb4047c1c6753f77271f984a47ab30197c1c644bb452b4caf3f20029",
  "source": "pragma solidity ^0.4.4;\n\n\ncontract Calculator {\n\n  uint outcome;\n\n  function Calculator(uint number) {\n    outcome= number;\n  }\n\n  function getResult() constant returns (uint) {\n    return outcome;\n  }\n\n  function addToNumber(uint num) returns (uint) {\n    outcome += num;\n    return outcome; \n  }\n\n  function substractFromNumber(uint num) returns (uint) {\n    outcome -= num;\n    return outcome; \n  }\n\n\n}\n",
  "sourcePath": "/Users/nitishbhushan/Documents/technical/tehnologies/ethereum/Truffle/calculator/contracts/Calculator.sol",
  "compiler": {
    "name": "solc",
    "version": "0.4.19+commit.c4cbbb05.Emscripten.clang"
  },
  "schemaVersion": "2.0.0",
  "updatedAt": "2018-03-07T09:22:19.925Z"
}