{
  "contractName": "MappingEnumStruct",
  "abi": [
    {
      "inputs": [],
      "payable": false,
      "stateMutability": "nonpayable",
      "type": "constructor"
    },
    {
      "constant": false,
      "inputs": [
        {
          "name": "country",
          "type": "string"
        },
        {
          "name": "capital",
          "type": "string"
        }
      ],
      "name": "addCapital",
      "outputs": [],
      "payable": false,
      "stateMutability": "nonpayable",
      "type": "function"
    },
    {
      "constant": true,
      "inputs": [
        {
          "name": "country",
          "type": "string"
        }
      ],
      "name": "getCapital",
      "outputs": [
        {
          "name": "",
          "type": "string"
        }
      ],
      "payable": false,
      "stateMutability": "view",
      "type": "function"
    },
    {
      "constant": false,
      "inputs": [
        {
          "name": "country",
          "type": "string"
        }
      ],
      "name": "removeCapital",
      "outputs": [],
      "payable": false,
      "stateMutability": "nonpayable",
      "type": "function"
    }
  ],
  "bytecode": "0x6060604052341561000f57600080fd5b61056d8061001e6000396000f300606060405260043610610057576000357c0100000000000000000000000000000000000000000000000000000000900463ffffffff168063418db3871461005c578063a28bbb3d14610132578063b4f9f6211461018f575b600080fd5b341561006757600080fd5b6100b7600480803590602001908201803590602001908080601f0160208091040260200160405190810160405280939291908181526020018383808284378201915050505050509190505061022f565b6040518080602001828103825283818151815260200191508051906020019080838360005b838110156100f75780820151818401526020810190506100dc565b50505050905090810190601f1680156101245780820380516001836020036101000a031916815260200191505b509250505060405180910390f35b341561013d57600080fd5b61018d600480803590602001908201803590602001908080601f01602080910402602001604051908101604052809392919081815260200183838082843782019150505050505091905050610342565b005b341561019a57600080fd5b61022d600480803590602001908201803590602001908080601f0160208091040260200160405190810160405280939291908181526020018383808284378201915050505050509190803590602001908201803590602001908080601f016020809104026020016040519081016040528093929190818152602001838380828437820191505050505050919050506103bc565b005b610237610440565b6000826040518082805190602001908083835b60208310151561026f578051825260208201915060208101905060208303925061024a565b6001836020036101000a03801982511681845116808217855250505050505090500191505090815260200160405180910390208054600181600116156101000203166002900480601f0160208091040260200160405190810160405280929190818152602001828054600181600116156101000203166002900480156103365780601f1061030b57610100808354040283529160200191610336565b820191906000526020600020905b81548152906001019060200180831161031957829003601f168201915b50505050509050919050565b6000816040518082805190602001908083835b60208310151561037a5780518252602082019150602081019050602083039250610355565b6001836020036101000a038019825116818451168082178552505050505050905001915050908152602001604051809103902060006103b99190610454565b50565b806000836040518082805190602001908083835b6020831015156103f557805182526020820191506020810190506020830392506103d0565b6001836020036101000a0380198251168184511680821785525050505050509050019150509081526020016040518091039020908051906020019061043b92919061049c565b505050565b602060405190810160405280600081525090565b50805460018160011615610100020316600290046000825580601f1061047a5750610499565b601f016020900490600052602060002090810190610498919061051c565b5b50565b828054600181600116156101000203166002900490600052602060002090601f016020900481019282601f106104dd57805160ff191683800117855561050b565b8280016001018555821561050b579182015b8281111561050a5782518255916020019190600101906104ef565b5b509050610518919061051c565b5090565b61053e91905b8082111561053a576000816000905550600101610522565b5090565b905600a165627a7a72305820c46a4a90b19cdda42fc16b80cd91d6d26caf0f86cec03bc4f448b6b6382eca200029",
  "source": "pragma solidity ^0.4.4;\n\ncontract MappingEnumStruct {\n\n    //storage variable \n    mapping(string => string) capitals;\n\n    function MappingEnumStruct() {\n    \n    }\n\n    function addCapital(string country, string capital) {\n      capitals[country] = capital;\n    } \n\n    function getCapital(string country) view returns(string) {\n      return capitals[country];\n    }\n\n    function removeCapital(string country) {\n      delete(capitals[country]);\n    }\n\n\n}\n",
  "sourcePath": "/Users/nitishbhushan/Documents/technical/tehnologies/ethereum/Truffle/solidityCodes/contracts/MappingEnumStruct.sol",
  "compiler": {
    "name": "solc",
    "version": "0.4.19+commit.c4cbbb05.Emscripten.clang"
  },
  "schemaVersion": "2.0.0",
  "updatedAt": "2018-03-12T20:00:34.979Z"
}