{
  "contractName": "MappingEnumStruct",
  "abi": [
    {
      "inputs": [],
      "payable": false,
      "stateMutability": "nonpayable",
      "type": "constructor"
    },
    {
      "constant": false,
      "inputs": [
        {
          "name": "country",
          "type": "string"
        },
        {
          "name": "capital",
          "type": "string"
        }
      ],
      "name": "addCapital",
      "outputs": [],
      "payable": false,
      "stateMutability": "nonpayable",
      "type": "function"
    },
    {
      "constant": true,
      "inputs": [
        {
          "name": "country",
          "type": "string"
        }
      ],
      "name": "getCapital",
      "outputs": [
        {
          "name": "",
          "type": "string"
        }
      ],
      "payable": false,
      "stateMutability": "view",
      "type": "function"
    },
    {
      "constant": false,
      "inputs": [
        {
          "name": "country",
          "type": "string"
        }
      ],
      "name": "removeCapital",
      "outputs": [],
      "payable": false,
      "stateMutability": "nonpayable",
      "type": "function"
    },
    {
      "constant": false,
      "inputs": [
        {
          "name": "index",
          "type": "uint8"
        }
      ],
      "name": "getContinent",
      "outputs": [
        {
          "name": "",
          "type": "string"
        }
      ],
      "payable": false,
      "stateMutability": "nonpayable",
      "type": "function"
    }
  ],
  "bytecode": "0x6060604052341561000f57600080fd5b6107d78061001e6000396000f300606060405260043610610062576000357c0100000000000000000000000000000000000000000000000000000000900463ffffffff168063155371bd14610067578063418db38714610106578063a28bbb3d146101dc578063b4f9f62114610239575b600080fd5b341561007257600080fd5b61008b600480803560ff169060200190919050506102d9565b6040518080602001828103825283818151815260200191508051906020019080838360005b838110156100cb5780820151818401526020810190506100b0565b50505050905090810190601f1680156100f85780820380516001836020036101000a031916815260200191505b509250505060405180910390f35b341561011157600080fd5b610161600480803590602001908201803590602001908080601f01602080910402602001604051908101604052809392919081815260200183838082843782019150505050505091905050610499565b6040518080602001828103825283818151815260200191508051906020019080838360005b838110156101a1578082015181840152602081019050610186565b50505050905090810190601f1680156101ce5780820380516001836020036101000a031916815260200191505b509250505060405180910390f35b34156101e757600080fd5b610237600480803590602001908201803590602001908080601f016020809104026020016040519081016040528093929190818152602001838380828437820191505050505050919050506105ac565b005b341561024457600080fd5b6102d7600480803590602001908201803590602001908080601f0160208091040260200160405190810160405280939291908181526020018383808284378201915050505050509190803590602001908201803590602001908080601f01602080910402602001604051908101604052809392919081815260200183838082843782019150505050505091905050610626565b005b6102e16106aa565b600060048111156102ee57fe5b60ff168260ff161415610338576040805190810160405280600481526020017f41736961000000000000000000000000000000000000000000000000000000008152509050610494565b6001600481111561034557fe5b60ff168260ff16141561038f576040805190810160405280600681526020017f41667269636100000000000000000000000000000000000000000000000000008152509050610494565b6002600481111561039c57fe5b60ff168260ff1614156103e6576040805190810160405280600981526020017f4175737472616c696100000000000000000000000000000000000000000000008152509050610494565b600360048111156103f357fe5b60ff168260ff16141561043d576040805190810160405280600981526020017f416e7461727469636100000000000000000000000000000000000000000000008152509050610494565b60048081111561044957fe5b60ff168260ff161415610493576040805190810160405280600681526020017f4575726f706500000000000000000000000000000000000000000000000000008152509050610494565b5b919050565b6104a16106aa565b6000826040518082805190602001908083835b6020831015156104d957805182526020820191506020810190506020830392506104b4565b6001836020036101000a03801982511681845116808217855250505050505090500191505090815260200160405180910390208054600181600116156101000203166002900480601f0160208091040260200160405190810160405280929190818152602001828054600181600116156101000203166002900480156105a05780601f10610575576101008083540402835291602001916105a0565b820191906000526020600020905b81548152906001019060200180831161058357829003601f168201915b50505050509050919050565b6000816040518082805190602001908083835b6020831015156105e457805182526020820191506020810190506020830392506105bf565b6001836020036101000a0380198251168184511680821785525050505050509050019150509081526020016040518091039020600061062391906106be565b50565b806000836040518082805190602001908083835b60208310151561065f578051825260208201915060208101905060208303925061063a565b6001836020036101000a038019825116818451168082178552505050505050905001915050908152602001604051809103902090805190602001906106a5929190610706565b505050565b602060405190810160405280600081525090565b50805460018160011615610100020316600290046000825580601f106106e45750610703565b601f0160209004906000526020600020908101906107029190610786565b5b50565b828054600181600116156101000203166002900490600052602060002090601f016020900481019282601f1061074757805160ff1916838001178555610775565b82800160010185558215610775579182015b82811115610774578251825591602001919060010190610759565b5b5090506107829190610786565b5090565b6107a891905b808211156107a457600081600090555060010161078c565b5090565b905600a165627a7a7230582047c14ddb3acf18711067c836c4296914ae1e56a36b7da2cc94eaec068762138c0029",
  "source": "pragma solidity ^0.4.4;\n\ncontract MappingEnumStruct {\n\n    //storage variable \n    mapping(string => string) capitals;\n    enum continents {Asia,Africa,Australia,Antartica,Europe}\n\n    function MappingEnumStruct() {\n    \n    }\n\n    function addCapital(string country, string capital) {\n      capitals[country] = capital;\n    } \n\n    function getCapital(string country) view returns(string) {\n      return capitals[country];\n    }\n\n    function removeCapital(string country) {\n      delete(capitals[country]);\n    }\n\n    function getContinent(uint8 index ) returns (string) {\n      \n      if (index == uint8(continents.Asia))   \n         return \"Asia\";   \n      if (index == uint8(continents.Africa))\n        return \"Africa\";\n      if (index == uint8(continents.Australia))\n        return \"Australia\";\n      if (index == uint8(continents.Antartica))\n        return \"Antartica\";       \n      if (index == uint8(continents.Europe))\n        return \"Europe\"; \n    }\n\n\n}\n",
  "sourcePath": "/Users/nitishbhushan/Documents/technical/tehnologies/ethereum/Truffle/solidityCodes/contracts/MappingEnumStruct.sol",
  "compiler": {
    "name": "solc",
    "version": "0.4.19+commit.c4cbbb05.Emscripten.clang"
  },
  "schemaVersion": "2.0.0",
  "updatedAt": "2018-03-13T07:03:35.893Z"
}